:020000000000fe
:0200010000cf2e
:0200020000a05c
:02000300016f8b
:020004001ff6e5
:0200050000c534
:02000600009662
:02000700016591
:0200080000a353
:02000900017282
:02000a000143b0
:02000b000212df
:02000c00009959
:02000d00016888
:02000e000139b6
:02000f000208e5
:02001000016a83
:020011000239b2
:02001200020ae0
:0200130002d910
:02001400016089
:02001500022fb8
:020016000200e6
:0200170002cf16
:02001800020dd7
:0200190002dc07
:02001a0002ad35
:02001b00037c64
:02001c000203dd
:02001d0002d20d
:02001e0002a33b
:02001f0003726a
:020020001ee3dd
:020021001fb20c
:020022001f833a
:02002300005289
:020024001ed9e3
:020025001fa812
:020026001f7940
:0200270000488f
:020028001f8631
:02002900005580
:02002a000026ae
:02002b0000f5de
:02002c001f7c37
:02002d00004b86
:02002e00001cb4
:02002f0000ebe4
:02003000004d81
:02003100011cb0
:0200320000eddf
:0200330001bc0e
:02003400004387
:020035000112b6
:0200360000e3e5
:0200370001b214
:0200380000f0d6
:0200390001bf05
:02003a00019033
:02003b00025f62
:02003c0000e6dc
:02003d0001b50b
:02003e00018639
:02003f00025568
:020040001ad3d1
:020041001ba200
:020042001b732e
:020043001c425d
:020044001ac9d7
:020045001b9806
:020046001b6934
:020047001c3863
:020048001b7625
:020049001c4554
:02004a001c1682
:02004b001ce5b2
:02004c001b6c2b
:02004d001c3b5a
:02004e001c0c88
:02004f001cdbb8
:020050001c3d55
:020051001d0c84
:020052001cddb3
:020053001dace2
:020054001c335b
:020055001d028a
:020056001cd3b9
:020057001da2e8
:020058001ce0aa
:020059001dafd9
:02005a001d8007
:02005b001e4f36
:02005c001cd6b0
:02005d001da5df
:02005e001d760d
:02005f001e453c
:0200600019b6cf
:020061001a85fe
:020062001a562c
:020063001b255b
:0200640019acd5
:020065001a7b04
:020066001a4c32
:020067001b1b61
:020068001a5923
:020069001b2852
:02006a001af981
:02006b001bc8b0
:02006c001a4f29
:02006d001b1e58
:02006e001aef87
:02006f001bbeb6
:020070001b2053
:020071001bef83
:020072001bc0b1
:020073001c8fe0
:020074001b1659
:020075001be589
:020076001bb6b7
:020077001c85e6
:020078001bc3a8
:020079001c92d7
:02007a001c6305
:02007b001d3234
:02007c001bb9ae
:02007d001c88dd
:02007e001c590b
:02007f001d283a
:020080001c154d
:020081001ce47d
:020082001cb5ab
:020083001d84da
:020084001c0b53
:020085001cda83
:020086001cabb1
:020087001d7ae0
:020088001cb8a2
:020089001d87d1
:02008a001d58ff
:02008b001e272e
:02008c001caea8
:02008d001d7dd7
:02008e001d4e05
:02008f001e1d34
:020090001d7fd2
:020091001e4e01
:020092001e1f2f
:020093001eee5f
:020094001d75d8
:020095001e4407
:020096001e1535
:020097001ee465
:020098001e2226
:020099001ef156
:02009a001ec284
:02009b001f91b3
:02009c001e182c
:02009d001ee75c
:02009e001eb88a
:02009f001f87b9
:0200a0001af84c
:0200a1001bc77b
:0200a2001b98a9
:0200a3001c67d8
:0200a4001aee52
:0200a5001bbd81
:0200a6001b8eaf
:0200a7001c5dde
:0200a8001b9ba0
:0200a9001c6acf
:0200aa001c3bfd
:0200ab001d0a2c
:0200ac001b91a6
:0200ad001c60d5
:0200ae001c3103
:0200af001d0032
:0200b0001c62d0
:0200b1001d31ff
:0200b2001d022d
:0200b3001dd15d
:0200b4001c58d6
:0200b5001d2705
:0200b6001cf834
:0200b7001dc763
:0200b8001d0524
:0200b9001dd454
:0200ba001da582
:0200bb001e74b1
:0200bc001cfb2b
:0200bd001dca5a
:0200be001d9b88
:0200bf001e6ab7
:0200c00016e840
:0200c10017b76f
:0200c20017889d
:0200c3001857cc
:0200c40016de46
:0200c50017ad75
:0200c600177ea3
:0200c700184dd2
:0200c800178b94
:0200c900185ac3
:0200ca00182bf1
:0200cb0018fa21
:0200cc0017819a
:0200cd001850c9
:0200ce001821f7
:0200cf0018f027
:0200d0001852c4
:0200d1001921f3
:0200d20018f222
:0200d30019c151
:0200d4001848ca
:0200d5001917f9
:0200d60018e828
:0200d70019b757
:0200d80018f519
:0200d90019c448
:0200da00199576
:0200db001a64a5
:0200dc0018eb1f
:0200dd0019ba4e
:0200de00198b7c
:0200df001a5aab
:0200e00015cb3e
:0200e100169a6d
:0200e200166b9b
:0200e300173aca
:0200e40015c144
:0200e500169073
:0200e6001661a1
:0200e7001730d0
:0200e800166e92
:0200e900173dc1
:0200ea00170eef
:0200eb0017dd1f
:0200ec00166498
:0200ed001733c7
:0200ee001704f5
:0200ef0017d325
:0200f0001735c2
:0200f1001804f1
:0200f20017d520
:0200f30018a44f
:0200f400172bc8
:0200f50017faf8
:0200f60017cb26
:0200f700189a55
:0200f80017d817
:0200f90018a746
:0200fa00187874
:0200fb001947a3
:0200fc0017ce1d
:0200fd00189d4c
:0200fe00186e7a
:0200ff00193da9
:00000001FF
