:020000000000fe
:020001000009f4
:020002000015e7
:02000300001edd
:020004000008f2
:020005000011e8
:02000600001ddb
:020007000026d1
:0200080001ec09
:0200090001f5ff
:02000a000001f3
:02000b00000ae9
:02000c0001f4fd
:02000d0001fdf3
:02000e000009e7
:02000f000012dd
:0200100001effe
:0200110001f8f4
:020012000004e8
:02001300000dde
:0200140001f7f2
:020015000000e9
:02001600000cdc
:020017000015d2
:0200180001db0a
:0200190001e400
:02001a0001f0f3
:02001b0001f9e9
:02001c0001e3fe
:02001d0001ecf4
:02001e0001f8e7
:02001f000001de
:020020000001dd
:02002100000ad3
:020022000016c6
:02002300001fbc
:020024000009d1
:020025000012c7
:02002600001eba
:020027000027b0
:0200280001ede8
:0200290001f6de
:02002a000002d2
:02002b00000bc8
:02002c0001f5dc
:02002d0001fed2
:02002e00000ac6
:02002f000013bc
:0200300001f0dd
:0200310001f9d3
:020032000005c7
:02003300000ebd
:0200340001f8d1
:020035000001c8
:02003600000dbb
:020037000016b1
:0200380001dce9
:0200390001e5df
:02003a0001f1d2
:02003b0001fac8
:02003c0001e4dd
:02003d0001edd3
:02003e0001f9c6
:02003f000002bd
:0200400001cbf2
:0200410001d4e8
:0200420001e0db
:0200430001e9d1
:0200440001d3e6
:0200450001dcdc
:0200460001e8cf
:0200470001f1c5
:0200480001b7fe
:0200490001c0f4
:02004a0001cce7
:02004b0001d5dd
:02004c0001bff2
:02004d0001c8e8
:02004e0001d4db
:02004f0001ddd1
:0200500001baf3
:0200510001c3e9
:0200520001cfdc
:0200530001d8d2
:0200540001c2e7
:0200550001cbdd
:0200560001d7d0
:0200570001e0c6
:0200580001a6ff
:0200590001aff5
:02005a0001bbe8
:02005b0001c4de
:02005c0001aef3
:02005d0001b7e9
:02005e0001c3dc
:02005f0001ccd2
:0200600001ccd1
:0200610001d5c7
:0200620001e1ba
:0200630001eab0
:0200640001d4c5
:0200650001ddbb
:0200660001e9ae
:0200670001f2a4
:0200680001b8dd
:0200690001c1d3
:02006a0001cdc6
:02006b0001d6bc
:02006c0001c0d1
:02006d0001c9c7
:02006e0001d5ba
:02006f0001deb0
:0200700001bbd2
:0200710001c4c8
:0200720001d0bb
:0200730001d9b1
:0200740001c3c6
:0200750001ccbc
:0200760001d8af
:0200770001e1a5
:0200780001a7de
:0200790001b0d4
:02007a0001bcc7
:02007b0001c5bd
:02007c0001afd2
:02007d0001b8c8
:02007e0001c4bb
:02007f0001cdb1
:020080000189f4
:020081000192ea
:02008200019edd
:0200830001a7d3
:020084000191e8
:02008500019ade
:0200860001a6d1
:0200870001afc7
:02008800017500
:02008900017ef6
:02008a00018ae9
:02008b000193df
:02008c00017df4
:02008d000186ea
:02008e000192dd
:02008f00019bd3
:020090000178f5
:020091000181eb
:02009200018dde
:020093000196d4
:020094000180e9
:020095000189df
:020096000195d2
:02009700019ec8
:02009800016401
:02009900016df7
:02009a000179ea
:02009b000182e0
:02009c00016cf5
:02009d000175eb
:02009e000181de
:02009f00018ad4
:0200a000018ad3
:0200a1000193c9
:0200a200019fbc
:0200a30001a8b2
:0200a4000192c7
:0200a500019bbd
:0200a60001a7b0
:0200a70001b0a6
:0200a8000176df
:0200a900017fd5
:0200aa00018bc8
:0200ab000194be
:0200ac00017ed3
:0200ad000187c9
:0200ae000193bc
:0200af00019cb2
:0200b0000179d4
:0200b1000182ca
:0200b200018ebd
:0200b3000197b3
:0200b4000181c8
:0200b500018abe
:0200b6000196b1
:0200b700019fa7
:0200b8000165e0
:0200b900016ed6
:0200ba00017ac9
:0200bb000183bf
:0200bc00016dd4
:0200bd000176ca
:0200be000182bd
:0200bf00018bb3
:0200c0000154e9
:0200c100015ddf
:0200c2000169d2
:0200c3000172c8
:0200c400015cdd
:0200c5000165d3
:0200c6000171c6
:0200c700017abc
:0200c8000140f5
:0200c9000149eb
:0200ca000155de
:0200cb00015ed4
:0200cc000148e9
:0200cd000151df
:0200ce00015dd2
:0200cf000166c8
:0200d0000143ea
:0200d100014ce0
:0200d2000158d3
:0200d3000161c9
:0200d400014bde
:0200d5000154d4
:0200d6000160c7
:0200d7000169bd
:0200d800012ff6
:0200d9000138ec
:0200da000144df
:0200db00014dd5
:0200dc000137ea
:0200dd000140e0
:0200de00014cd3
:0200df000155c9
:0200e0000155c8
:0200e100015ebe
:0200e200016ab1
:0200e3000173a7
:0200e400015dbc
:0200e5000166b2
:0200e6000172a5
:0200e700017b9b
:0200e8000141d4
:0200e900014aca
:0200ea000156bd
:0200eb00015fb3
:0200ec000149c8
:0200ed000152be
:0200ee00015eb1
:0200ef000167a7
:0200f0000144c9
:0200f100014dbf
:0200f2000159b2
:0200f3000162a8
:0200f400014cbd
:0200f5000155b3
:0200f6000161a6
:0200f700016a9c
:0200f8000130d5
:0200f9000139cb
:0200fa000145be
:0200fb00014eb4
:0200fc000138c9
:0200fd000141bf
:0200fe00014db2
:0200ff000156a8
:00000001FF
